:020000040800F2
:1000000000000520253F0008F3100008011100083A
:10001000071100080D11000813110008000000006E
:10002000000000000000000000000000191100089E
:1000300027110008000000003511000843110008D6
:10004000753F0008753F0008753F0008753F0008C0
:10005000753F0008753F0008753F0008753F0008B0
:10006000753F0008753F0008753F0008753F0008A0
:10007000753F0008753F0008753F0008753F000890
:10008000753F0008753F0008753F0008753F000880
:10009000753F0008753F0008753F0008753F000870
:1000A000753F0008753F0008753F0008753F000860
:1000B000753F0008753F0008753F0008753F000850
:1000C000753F0008753F0008753F0008753F000840
:1000D000753F0008753F0008753F0008753F000830
:1000E000753F0008753F0008753F0008753F000820
:1000F000753F0008753F0008753F0008753F000810
:10010000753F0008753F0008753F0008753F0008FF
:10011000753F0008753F0008753F0008753F0008EF
:10012000753F0008753F0008753F0008753F0008DF
:10013000753F0008753F0008753F0008753F0008CF
:10014000753F0008753F0008753F0008753F0008BF
:10015000753F0008753F0008753F0008753F0008AF
:10016000753F0008753F0008753F0008753F00089F
:10017000753F0008753F0008753F0008000000004B
:10018000753F0008753F0008753F0008753F00087F
:10019000753F0008753F0008753F0008753F00086F
:1001A000753F0008753F00080000000000000000D7
:1001B00081F0004102E000BF83F0004330B54FEA18
:1001C00041044FEA430594EA050F08BF90EA020F85
:1001D0001FBF54EA000C55EA020C7FEA645C7FEA18
:1001E000655C00F0E2804FEA5454D4EB5555B8BF3B
:1001F0006D420CDD2C4480EA020281EA030382EAAC
:10020000000083EA010180EA020281EA0303362D3D
:1002100088BF30BD11F0004F4FEA01314FF4801C10
:100220004CEA113102D0404261EB410113F0004F22
:100230004FEA03334CEA133302D0524263EB4303D9
:1002400094EA050F00F0A780A4F10104D5F1200E77
:100250000DDB02FA0EFC22FA05F2801841F10001D2
:1002600003FA0EF2801843FA05F359410EE0A5F1A6
:1002700020050EF1200E012A03FA0EFC28BF4CF0D7
:10028000020C43FA05F3C01851EBE37101F000458D
:1002900007D54FF0000EDCF1000C7EEB00006EEB9A
:1002A0000101B1F5801F1BD3B1F5001F0CD3490824
:1002B0005FEA30004FEA3C0C04F101044FEA44527B
:1002C00012F5800F80F09A80BCF1004F08BF5FEA02
:1002D000500C50F1000041EB045141EA050130BDE2
:1002E0005FEA4C0C404141EB010111F4801FA4F185
:1002F0000104E9D191F0000F04BF01460020B1FADA
:1003000081F308BF2033A3F10B03B3F120020CDA11
:100310000C3208DD02F1140CC2F10C0201FA0CF0EF
:1003200021FA02F10CE002F11402D8BFC2F1200C54
:1003300001FA02F120FA0CFCDCBF41EA0C0190400A
:10034000E41AA2BF01EB0451294330BD6FEA040453
:100350001F3C1CDA0C340EDC04F11404C4F120023E
:1003600020FA04F001FA02F340EA030021FA04F350
:1003700045EA030130BDC4F10C04C4F1200220FAA7
:1003800002F001FA04F340EA0300294630BD21FAE5
:1003900004F0294630BD94F0000F83F4801306BFAB
:1003A00081F480110134013D4EE77FEA645C18BF9F
:1003B0007FEA655C29D094EA050F08BF90EA020F36
:1003C00005D054EA000C04BF1946104630BD91EA2E
:1003D000030F1EBF0021002030BD5FEA545C05D131
:1003E0004000494128BF41F0004130BD14F5800470
:1003F0003CBF01F5801130BD01F0004545F0FE41E4
:1004000041F470014FF0000030BD7FEA645C1ABF18
:10041000194610467FEA655C1CBF0B46024650EA4F
:10042000013406BF52EA033591EA030F41F400217B
:1004300030BD00BF90F0000F04BF0021704730B501
:100440004FF4806404F132044FF000054FF00001D6
:1004500050E700BF90F0000F04BF0021704730B597
:100460004FF4806404F1320410F0004548BF40426C
:100470004FF000013EE700BF42004FEAE2014FEAC1
:1004800031014FEA02701FBF12F07F4393F07F4F9C
:1004900081F06051704732F07F4208BF704793F09F
:1004A0007F4F04BF41F40021704730B54FF46074B2
:1004B00001F0004521F000411CE700BF50EA0102B5
:1004C00008BF704730B54FF000050AE050EA01025E
:1004D00008BF704730B511F0004502D5404261EBCE
:1004E00041014FF4806404F132045FEA915C3FF40F
:1004F000D8AE4FF003025FEADC0C18BF03325FEAAC
:10050000DC0C18BF033202EBDC02C2F1200300FA5C
:1005100003FC20FA02F001FA03FE40EA0E0021FA81
:1005200002F11444BDE600BF70B54FF0FF0C4CF46F
:10053000E06C1CEA11541DBF1CEA135594EA0C0F21
:1005400095EA0C0F00F0DEF82C4481EA030621EA5C
:100550004C5123EA4C5350EA013518BF52EA033597
:1005600041F4801143F4801338D0A0FB02CE4FF049
:100570000005E1FB02E506F00042E0FB03E54FF079
:100580000006E1FB03569CF0000F18BF4EF0010E71
:10059000A4F1FF04B6F5007F64F5407404D25FEA6D
:1005A0004E0E6D4146EB060642EAC62141EA555120
:1005B0004FEAC52040EA5E504FEACE2EB4F1FD0C62
:1005C00088BFBCF5E06F1ED8BEF1004F08BF5FEAE0
:1005D000500E50F1000041EB045170BD06F0004692
:1005E00046EA010140EA020081EA0301B4EB5C043F
:1005F000C2BFD4EB0C0541EA045170BD41F4801137
:100600004FF0000E013C00F3AB8014F1360FDEBF5B
:10061000002001F0004170BDC4F10004203C35DA37
:100620000C341BDC04F11404C4F1200500FA05F3BA
:1006300020FA04F001FA05F240EA020001F000425B
:1006400021F0004110EBD37021FA04F642EB0601D1
:100650005EEA430E08BF20EAD37070BDC4F10C04FB
:10066000C4F1200500FA04F320FA05F001FA04F2BF
:1006700040EA020001F0004110EBD37041F10001AB
:100680005EEA430E08BF20EAD37070BDC4F12005B6
:1006900000FA05F24EEA020E20FA04F301FA05F21E
:1006A00043EA020321FA04F001F0004121FA04F2C6
:1006B00020EA020000EBD3705EEA430E08BF20EA96
:1006C000D37070BD94F0000F0FD101F000464000D0
:1006D00041EB010111F4801F08BF013CF7D041EA52
:1006E000060195F0000F18BF704703F00046520056
:1006F00043EB030313F4801F08BF013DF7D043EA27
:100700000603704794EA0C0F0CEA135518BF95EADC
:100710000C0F0CD050EA410618BF52EA4306D1D163
:1007200081EA030101F000414FF0000070BD50EA82
:10073000410606BF1046194652EA430619D094EA0C
:100740000C0F02D150EA013613D195EA0C0F05D1F6
:1007500052EA03361CBF104619460AD181EA03014A
:1007600001F0004141F0FE4141F470014FF0000002
:1007700070BD41F0FE4141F4780170BD70B54FF09D
:10078000FF0C4CF4E06C1CEA11541DBF1CEA13551D
:1007900094EA0C0F95EA0C0F00F0A7F8A4EB0504FF
:1007A00081EA030E52EA03354FEA013100F08880F6
:1007B0004FEA03334FF0805545EA131343EA1263BF
:1007C0004FEA022245EA111545EA10654FEA002674
:1007D0000EF000419D4208BF964244F1FD0404F52D
:1007E000407402D25B084FEA3202B61A65EB030589
:1007F0005B084FEA32024FF480104FF4002CB6EB46
:10080000020E75EB030E22BFB61A754640EA0C00C5
:100810005B084FEA3202B6EB020E75EB030E22BF05
:10082000B61A754640EA5C005B084FEA3202B6EB46
:10083000020E75EB030E22BFB61A754640EA9C0005
:100840005B084FEA3202B6EB020E75EB030E22BFD5
:10085000B61A754640EADC0055EA060E18D04FEA93
:10086000051545EA16754FEA06164FEAC30343EA33
:1008700052734FEAC2025FEA1C1CC0D111F4801F00
:100880000BD141EA00014FF000004FF0004CB6E7F9
:1008900011F4801F04BF01430020B4F1FD0C88BF98
:1008A000BCF5E06F3FF6AFAEB5EB030C04BFB6EBA3
:1008B000020C5FEA500C50F1000041EB045170BD96
:1008C0000EF0004E4EEA113114EB5C04C2BFD4EBC3
:1008D0000C0541EA045170BD41F480114FF0000E47
:1008E000013C90E645EA060E8DE60CEA135594EAC3
:1008F0000C0F08BF95EA0C0F3FF43BAF94EA0C0FC6
:100900000AD150EA01347FF434AF95EA0C0F7FF43A
:1009100025AF104619462CE795EA0C0F06D152EA8E
:1009200003353FF4FDAE1046194622E750EA410672
:1009300018BF52EA43067FF4C5AE50EA41047FF483
:100940000DAF52EA43057FF4EBAE12E74A0011D235
:1009500012F5001211D20DD56FF47873B3EB625219
:100960000ED44FEAC12343F0004343EA505323FA25
:1009700002F070474FF00000704750EA013002D19A
:100980004FF0FF3070474FF00000704753B94AB93D
:10099000002908BF00281CBF4FF0FF314FF0FF3087
:1009A00000F00CB8ADF1080C6DE904CE03F010FBBB
:1009B000DDF804E0DDE9022304B07047704700BFB2
:1009C0000348044B834202D0034B03B118477047DE
:1009D000100000201000002000000000054806491B
:1009E000091A891001EBD171491002D0034B03B1F0
:1009F0001847704710000020100000200000000081
:100A000010B5064C237843B9FFF7DAFF044B13B156
:100A10000448AFF300800123237010BD10000020B4
:100A200000000000A042000808B5054B1BB10549B5
:100A30000548AFF30080BDE80840FFF7CFBF00BF17
:100A40000000000014000020A042000880B582B021
:100A500000AF00F027FE00F017F800F01BFA00F0DE
:100A6000B5F800F0F3F800F031F900F06DF900F09E
:100A7000A9F900F0D7F900F005FA00F0EDFA786076
:100A8000C82000F07FFEF8E780B5BAB000AF07F1EC
:100A9000A40344220021184603F092FA07F19003C0
:100AA00000221A605A609A60DA601A613B1D8C223B
:100AB0000021184603F084FA02F00EFB424BD3F8F3
:100AC0009030414A23F01803C2F890301423C7F83D
:100AD000A4300123C7F8AC300123C7F8BC30002391
:100AE000C7F8C0306023C7F8C4300223C7F8CC3041
:100AF0000123C7F8D0300123C7F8D4302823C7F822
:100B0000D8300223C7F8DC300223C7F8E0300223D4
:100B1000C7F8E43007F1A403184600F055FE034679
:100B2000002B01D000F0DEFA0F23C7F8903003232A
:100B3000C7F894300023C7F898300023C7F89C30DA
:100B40000023C7F8A03007F190030421184601F0F4
:100B500029FA0346002B01D000F0C4FA42F24313F5
:100B60007B600023FB6300233B6400237B65002341
:100B7000FB654FF080637B670123BB600123FB6053
:100B800018233B6102237B610223BB610223FB61CB
:100B90004FF480133B623B1D184601F009FC0346ED
:100BA000002B01D000F09EFA4FF4007002F0B2FA70
:100BB0000346002B01D000F095FA01F0F1FE00BFD2
:100BC000E837BD4680BD00BF0010024080B500AFD1
:100BD0001B4B1C4A1A601A4B1B4A5A60184B0022C6
:100BE0009A60174B0122DA60154B00221A61144BF0
:100BF00000225A61124B00229A61114B0022DA61E5
:100C00000F4B00221A620E4800F026FC0346002B10
:100C100001D000F067FA0021094800F0ACFC03465F
:100C2000002B01D000F05EFA0021054800F0EEFC38
:100C30000346002B01D000F055FA00BF80BD00BF75
:100C4000DC00002000540040EC9C901080B500AF08
:100C50001B4B1C4A1A601A4B1B4A5A60184B002245
:100C60009A60174B0122DA60154B00221A61144B6F
:100C700000225A61124B00229A61114B0022DA6164
:100C80000F4B00221A620E4800F0E6FB0346002BD1
:100C900001D000F027FA0021094800F06CFC03465F
:100CA000002B01D000F01EFA0021054800F0AEFC38
:100CB0000346002B01D000F015FA00BF80BD00BF35
:100CC0002C000020005C0040EC9C901080B500AF30
:100CD0001B4B1C4A1A601A4B4FF482725A60184B15
:100CE00000229A60164B4FF44072DA60144B0022D7
:100CF0001A61134B00225A61114B4FF480229A6102
:100D00000F4B0022DA610E4B00221A620C4B0022BC
:100D10005A620B4B00229A62094B0722DA62084B97
:100D200000221A63064B08225A63054802F02DFB85
:100D30000346002B01D000F0D5F900BF80BD00BFF5
:100D4000A80100200030014080B500AF1B4B1C4AB9
:100D50001A601A4B4FF482725A60184B00229A6044
:100D6000164B4FF44072DA60144B00221A61134B99
:100D700000225A61114B4FF480229A610F4B0022DE
:100D8000DA610E4B00221A620C4B00225A620B4BA6
:100D900000229A62094B0722DA62084B00221A638A
:100DA000064B08225A63054802F0EFFA0346002B6F
:100DB00001D000F097F900BF80BD00BF780000208F
:100DC0000038004080B500AF144B154A1A60134B31
:100DD0004FF4E1325A60114B00229A600F4B00220F
:100DE000DA600E4B00221A610C4B0C225A610B4B3D
:100DF00000229A61094B0022DA61084B00221A6234
:100E0000064B00225A62054802F049FB0346002BBC
:100E100001D000F067F900BF80BD00BF28010020AD
:100E20000038014080B500AF144B154A1A60134BCF
:100E30004FF4E1325A60114B00229A600F4B0022AE
:100E4000DA600E4B00221A610C4B0C225A610B4BDC
:100E50004FF440729A61094B0022DA61074B00227D
:100E60001A62064B00225A62044802F018FB03463D
:100E7000002B01D000F036F900BF80BD0C0200202D
:100E80000044004080B400AF00BFBD465DF8047B65
:100E90007047000080B58AB000AF07F1140300224C
:100EA0001A605A609A60DA601A61664BDB6C654AB8
:100EB00043F00403D364634BDB6C03F004033B6136
:100EC0003B69604BDB6C5F4A43F08003D3645D4B4E
:100ED000DB6C03F08003FB60FB685A4BDB6C594A08
:100EE00043F00103D364574BDB6C03F00103BB6099
:100EF000BB68544BDB6C534A43F00203D364514B41
:100F0000DB6C03F002037B607B684E4BDB6C4D4A6D
:100F100043F00803D3644B4BDB6C03F008033B60E6
:100F20003B68002243F2F071474802F0BDF800220E
:100F300040F63741454802F0B7F800224FF401412E
:100F40004FF0904002F0B0F800220421404802F037
:100F5000ABF843F2F0737B610123BB610023FB61BB
:100F600000233B6207F114031946374801F0F2FEF3
:100F70000C237B61374BBB610023FB6107F114033A
:100F80001946314801F0E6FE40F637437B61012304
:100F9000BB610023FB6100233B6207F11403194688
:100FA0002A4801F0D7FE4FF401437B610123BB6166
:100FB0000023FB6100233B6207F1140319464FF045
:100FC000904001F0C7FE4FF400737B610023BB61CA
:100FD0000023FB6107F1140319464FF0904001F024
:100FE000B9FE4FF4E0537B610223BB610023FB6138
:100FF00003233B620A237B6207F1140319464FF077
:10100000904001F0A7FE4FF400637B610023BB61B9
:101010000023FB6107F1140319460B4801F09AFE07
:1010200004237B610123BB610023FB6100233B623E
:1010300007F114031946064801F08CFE00BF28375B
:10104000BD4680BD00100240000800480004004872
:10105000000C00480000111090B583B000AF0023D1
:101060007B6001224FF480611D4802F01DF80A20C8
:1010700002F036FF00224FF48061194802F014F8A4
:1010800000BF4FF40061164801F0F6FF0346002B45
:10109000F7D005E07B6801337B60012002F020FF80
:1010A0004FF400610E4801F0E7FF0346002BF1D139
:1010B0007868FFF7BFF908A3D3E90023FFF734FAF4
:1010C00003460C4618462146FFF740FC03461846E7
:1010D0000C37BD4690BD00BF9CC420B07268A13FD4
:1010E0000008004880B400AF00BFBD465DF8047B37
:1010F000704780B400AF00BFBD465DF8047B704709
:1011000080B400AFFEE780B400AFFEE780B400AF6C
:10111000FEE780B400AFFEE780B400AF00BFBD467D
:101120005DF8047B704780B400AF00BFBD465DF83A
:10113000047B704780B400AF00BFBD465DF8047B00
:10114000704780B500AF00F0FFFA00BF80BD00001F
:1011500080B483B000AF0F4B1B6E0E4A43F0010307
:1011600013660C4B1B6E03F001037B607B68094B1D
:101170009B6D084A43F080539365064B9B6D03F0CB
:1011800080533B603B6800BF0C37BD465DF8047B75
:10119000704700BF0010024080B58CB000AF78608F
:1011A00007F11C0300221A605A609A60DA601A6123
:1011B0007B681B682E4A934229D12E4BDB6C2D4A4B
:1011C00043F00203D3642B4BDB6C03F00203BB61DF
:1011D000BB694FF44073FB6112233B6201237B62C6
:1011E0000323BB620423FB6207F11C031946224858
:1011F00001F0B0FD1F4B9B6D1E4A43F40013936535
:101200001C4B9B6D03F400137B617B692CE07B68B6
:101210001B681A4A934227D1164BDB6C154A43F0E0
:101220000403D364134BDB6C03F004033B613B69A1
:101230000323FB6112233B6201237B620323BB6216
:101240000423FB6207F11C0319460D4801F082FDDF
:10125000084B9B6D074A43F400039365054B9B6D58
:1012600003F40003FB60FB6800BF3037BD4680BD60
:10127000005400400010024000040048005C0040A0
:101280000008004880B58CB000AF786007F11C03FF
:1012900000221A605A609A60DA601A617B681B68E3
:1012A0002F4A934229D12F4B1B6E2E4A43F4805371
:1012B00013662C4B1B6E03F48053BB61BB69294B37
:1012C000DB6C284A43F00103D364264BDB6C03F04C
:1012D00001037B617B69F023FB6102233B620023F6
:1012E0007B620323BB620523FB6207F11C031946E3
:1012F0004FF0904001F02EFD2DE07B681B681A4AEC
:10130000934228D1174B9B6D164A43F48043936553
:10131000144B9B6D03F480433B613B69114BDB6CC9
:10132000104A43F00203D3640E4BDB6C03F002035C
:10133000FB60FB684FF47043FB6102233B620023B8
:101340007B620323BB620523FB6207F11C03194682
:10135000064801F0FFFC00BF3037BD4680BD00BF2E
:1013600000300140001002400038004000040048F6
:1013700080B58CB000AF786007F11C0300221A60C2
:101380005A609A60DA601A617B681B682E4A934241
:1013900028D12E4B1B6E2D4A43F4804313662B4BF2
:1013A0001B6E03F48043BB61BB69284BDB6C274A8F
:1013B00043F00203D364254BDB6C03F002037B6133
:1013C0007B69C023FB6102233B6200237B62032312
:1013D000BB620723FB6207F11C0319461C4801F09E
:1013E000B9FC2DE07B681B681A4A934228D1174B41
:1013F0009B6D164A43F400339365144B9B6D03F4C5
:1014000000333B613B69114BDB6C104A43F0010335
:10141000D3640E4BDB6C03F00103FB60FB680F230E
:10142000FB6102233B6200237B620323BB62072331
:10143000FB6207F11C0319464FF0904001F08AFC53
:1014400000BF3037BD4680BD00380140001002406B
:10145000000400480044004080B582B000AF7860CE
:101460007B68002B01D1012381E07B6893F8413038
:10147000DBB2002B06D17B68002283F8402078681D
:10148000FFF78AFE7B68242283F841207B681B6873
:101490001A687B681B6822F001021A607B685A6830
:1014A0007B681B6822F070621A617B681B689A680F
:1014B0007B681B6822F400429A607B68DB68012B22
:1014C00007D17B689A687B681B6842F400429A6087
:1014D00006E07B689A687B681B6842F404429A6065
:1014E0007B68DB68022B04D17B681B684FF40062C9
:1014F0005A607B681B685B687A68126843F0007307
:1015000043F4004353607B681B68DA687B681B68A0
:1015100022F40042DA607B681A697B685B6942EA00
:1015200003017B689B691A027B681B680A43DA60C7
:101530007B68D9697B681A6A7B681B680A431A60F2
:101540007B681B681A687B681B6842F001021A609E
:101550007B6800225A647B68202283F841207B68E4
:1015600000221A637B68002283F842200023184679
:101570000837BD4680BD80B483B000AF7860396065
:101580007B6893F84130DBB2202B38D17B6893F82D
:101590004030012B01D1022332E07B68012283F825
:1015A00040207B68242283F841207B681B681A68EE
:1015B0007B681B6822F001021A607B681B681A684E
:1015C0007B681B6822F480521A607B681B6819686C
:1015D0007B681B683A680A431A607B681B681A6854
:1015E0007B681B6842F001021A607B68202283F846
:1015F00041207B68002283F84020002300E0022382
:1016000018460C37BD465DF8047B704780B485B042
:1016100000AF786039607B6893F84130DBB2202BF3
:1016200039D17B6893F84030012B01D1022333E09C
:101630007B68012283F840207B68242283F84120C4
:101640007B681B681A687B681B6822F001021A60BD
:101650007B681B681B68FB60FB6823F47063FB609E
:101660003B681B02FA681343FB607B681B68FA68DF
:101670001A607B681B681A687B681B6842F001026D
:101680001A607B68202283F841207B68002283F85F
:101690004020002300E0022318461437BD465DF8C1
:1016A000047B704780B582B000AF0023FB7103203C
:1016B00001F038FE002000F00DF80346002B02D0A8
:1016C0000123FB7101E0FFF743FDFB791846083762
:1016D000BD4680BD80B584B000AF78600023FB7349
:1016E000164B1B68002B22D0154B1A68134B1B6836
:1016F0004FF47A71B1FBF3F3B2FBF3F3184601F048
:1017000038FE0346002B0FD17B680F2B09D800222F
:1017100079684FF0FF3001F010FE0A4A7B681360D1
:1017200007E00123FB7304E00123FB7301E00123C5
:10173000FB73FB7B18461037BD4680BD04000020BC
:10174000080000200000002080B400AF054B1A689C
:10175000054B1B681344034A136000BFBD465DF888
:10176000047B70478C0200200400002080B400AF8E
:10177000034B1B681846BD465DF8047B704700BFED
:101780008C02002080B584B000AF7860FFF7EEFFD8
:10179000B8607B68FB60FB68B3F1FF3F04D0094B86
:1017A0001B68FA681344FB6000BFFFF7DFFF0246C7
:1017B000BB68D31AFA689A42F7D800BF1037BD4603
:1017C00080BD00BF0400002080B588B000AF786005
:1017D0007B68002B01D10123DBE3A44B9B6803F062
:1017E0000C03BB61A14BDB6803F003037B617B68E7
:1017F0001B6803F01003002B00F0E180BB69002B95
:1018000007D0BB690C2B40F088807B69012B40F02E
:101810008480964B1B6803F00203002B05D07B6885
:101820009B69002B01D10123B3E37B681A6A8F4BBC
:101830001B6803F00803002B04D08C4B1B6803F0DB
:10184000F00305E0894BD3F894301B0903F0F00353
:10185000934223D27B681B6A184600F049FD034679
:10186000002B01D0012394E3804B1B687F4A43F097
:10187000080313607D4B1B6823F0F0027B681B6A32
:101880007A4913430B60794B5B6823F47F427B6892
:10189000DB691B02754913434B6022E0734B1B68E5
:1018A000724A43F008031360704B1B6823F0F00288
:1018B0007B681B6A6D4913430B606C4B5B6823F4B8
:1018C0007F427B68DB691B02684913434B607B687E
:1018D0001B6A184600F00CFD0346002B01D00123C3
:1018E00057E300F041FC0146604B9B681B0903F085
:1018F0000F035F4AD35C03F01F0321FA03F35D4A31
:1019000013605D4B1B681846FFF7E4FE0346FB734C
:10191000FB7B002B52D0FB7B3BE37B689B69002B5E
:1019200032D0524B1B68514A43F001031360FFF75A
:101930001DFF386108E0FFF719FF02463B69D31A23
:10194000022B01D9032324E3484B1B6803F0020355
:10195000002BF0D0454B1B68444A43F0080313604A
:10196000424B1B6823F0F0027B681B6A3F4913431C
:101970000B603E4B5B6823F47F427B68DB691B0294
:101980003A4913434B601AE0384B1B68374A23F03F
:1019900001031360FFF7EAFE386108E0FFF7E6FE97
:1019A00002463B69D31A022B01D90323F1E22F4BE4
:1019B0001B6803F00203002BF0D100E000BF7B683E
:1019C0001B6803F00103002B74D0BB69082B05D002
:1019D000BB690C2B0ED17B69032B0BD1234B1B68EE
:1019E00003F40033002B64D07B685B68002B60D16C
:1019F0000123CEE27B685B68B3F5803F06D11B4BC9
:101A00001B681A4A43F4803313601DE07B685B68EF
:101A1000B3F5A02F0CD1154B1B68144A43F4802357
:101A20001360124B1B68114A43F4803313600BE0C0
:101A30000E4B1B680D4A23F4803313600B4B1B685D
:101A40000A4A23F4802313607B685B68002B1CD058
:101A5000FFF78CFE386111E0FFF788FE02463B6914
:101A6000D31A642B0AD9032393E200BF001002406B
:101A7000B84200080800002000000020AE4B1B68A0
:101A800003F40033002BE7D014E0FFF76FFE38615A
:101A900008E0FFF76BFE02463B69D31A642B01D9BD
:101AA000032376E2A44B1B6803F40033002BF0D130
:101AB00000E000BF7B681B6803F00203002B60D0CE
:101AC000BB69042B05D0BB690C2B19D17B69022B98
:101AD00016D1994B1B6803F48063002B05D07B68FB
:101AE000DB68002B01D1012353E2934B5B6823F0A9
:101AF000FE427B681B691B068F4913434B6040E025
:101B00007B68DB68002B23D08B4B1B688A4A43F42D
:101B100080731360FFF72AFE386108E0FFF726FEA6
:101B200002463B69D31A022B01D9032331E2824BCF
:101B30001B6803F48063002BF0D07F4B5B6823F0BD
:101B4000FE427B681B691B067B4913434B6018E010
:101B5000794B1B68784A23F480731360FFF706FE05
:101B6000386108E0FFF702FE02463B69D31A022BF8
:101B700001D903230DE2704B1B6803F48063002B33
:101B8000F0D17B681B6803F00803002B3CD07B6816
:101B90005B69002B1CD0684BD3F89430664A43F045
:101BA0000103C2F89430FFF7E1FD386108E0FFF768
:101BB000DDFD02463B69D31A022B01D90323E8E17C
:101BC0005D4BD3F8943003F00203002BEFD01BE001
:101BD000594BD3F89430584A23F00103C2F894309B
:101BE000FFF7C4FD386108E0FFF7C0FD02463B691E
:101BF000D31A022B01D90323CBE14F4BD3F89430F6
:101C000003F00203002BEFD17B681B6803F0040391
:101C1000002B00F0A5800023FB77474B9B6D03F062
:101C20008053002B0DD1444B9B6D434A43F08053AE
:101C30009365414B9B6D03F08053BB60BB680123F0
:101C4000FB773E4B1B6803F48073002B18D13B4B92
:101C50001B683A4A43F480731360FFF787FD3861CD
:101C600008E0FFF783FD02463B69D31A022B01D936
:101C700003238EE1314B1B6803F48073002BF0D0FB
:101C80007B689B68012B08D12B4BD3F890302A4AF4
:101C900043F00103C2F8903024E07B689B68052B79
:101CA00010D1254BD3F89030234A43F00403C2F8F7
:101CB0009030214BD3F890301F4A43F00103C2F813
:101CC00090300FE01C4BD3F890301B4A23F00103F7
:101CD000C2F89030184BD3F89030174A23F0040321
:101CE000C2F890307B689B68002B16D0FFF73EFD52
:101CF00038610AE0FFF73AFD02463B69D31A41F228
:101D00008832934201D9032343E10B4BD3F890303F
:101D100003F00203002BEDD019E0FFF727FD386137
:101D20000EE0FFF723FD02463B69D31A41F28832E9
:101D3000934205D903232CE10010024000700040BB
:101D4000964BD3F8903003F00203002BE9D1FB7FD0
:101D5000012B05D1914B9B6D904A23F080539365E5
:101D60007B681B6803F02003002B3CD07B685B6A18
:101D7000002B1CD0894BD3F89830884A43F00103DC
:101D8000C2F89830FFF7F2FC386108E0FFF7EEFC8C
:101D900002463B69D31A022B01D90323F9E07F4B9A
:101DA000D3F8983003F00203002BEFD01BE07B4BFD
:101DB000D3F89830794A23F00103C2F89830FFF73E
:101DC000D5FC386108E0FFF7D1FC02463B69D31A25
:101DD000022B01D90323DCE0704BD3F8983003F0D9
:101DE0000203002BEFD17B689B6A002B00F0D080B0
:101DF000BB690C2B00F08D807B689B6A022B5AD14B
:101E0000664B1B68654A23F080731360FFF7AEFCD6
:101E1000386108E0FFF7AAFC02463B69D31A022B9F
:101E200001D90323B5E05D4B1B6803F00073002B61
:101E3000F0D15A4BDA685A4B13407A68D16A7A6803
:101E4000126B013A120111437A68526B120211436C
:101E50007A68D26B5208013A520511437A68126CC3
:101E60005208013A520611437A68926BD2060A432D
:101E70004A491343CB60494B1B68484A43F080737F
:101E80001360464BDB68454A43F08073D360FFF72D
:101E90006DFC386108E0FFF769FC02463B69D31A24
:101EA000022B01D9032374E03C4B1B6803F0007341
:101EB000002BF0D06CE0394B1B68384A23F080735C
:101EC0001360364B1B6803F02053002B05D1334BB6
:101ED000DB68324A23F00303D360304BDB682F4AC0
:101EE00023F0887323F48033D360FFF73FFC38611D
:101EF00008E0FFF73BFC02463B69D31A022B01D9ED
:101F0000032346E0254B1B6803F00073002BF0D140
:101F10003EE07B689B6A012B01D1012339E01F4B16
:101F2000DB687B617B6903F003027B68DB6A9A42B2
:101F30002CD17B6903F070027B681B6B013B1B019A
:101F40009A4223D17B6903F4FE427B685B6B1B02E0
:101F50009A421BD17B6903F078427B689B6BDB065E
:101F60009A4213D17B6903F4C0027B68DB6B5B0888
:101F7000013B5B059A4209D17B6903F0C0627B6833
:101F80001B6C5B08013B5B069A4201D0012300E019
:101F9000002318462037BD4680BD00BF0010024018
:101FA0008C809D0180B584B000AF786039607B681B
:101FB000002B01D10123C8E0664B1B6803F0070327
:101FC0003A689A4210D9634B1B6823F007026149B3
:101FD0003B6813430B605F4B1B6803F007033A68D1
:101FE0009A4201D00123B0E07B681B6803F0010333
:101FF000002B4CD07B685B68032B07D1564B1B68CA
:1020000003F00073002B21D101239EE07B685B6805
:10201000022B07D1504B1B6803F40033002B15D162
:10202000012392E07B685B68002B07D14A4B1B6859
:1020300003F00203002B09D1012386E0464B1B6805
:1020400003F48063002B01D101237EE0424B9B68A7
:1020500023F003027B685B683F4913438B60FFF703
:1020600085FBF8600AE0FFF781FB0246FB68D31AA4
:1020700041F28832934201D9032366E0364B9B68D4
:1020800003F00C027B685B689B009A42EBD17B6893
:102090001B6803F00203002B08D02F4B9B6823F032
:1020A000F0027B689B682C4913438B60294B1B68AB
:1020B00003F007033A689A4210D2264B1B6823F0BC
:1020C000070224493B6813430B60224B1B6803F053
:1020D00007033A689A4201D0012336E07B681B6807
:1020E00003F00403002B08D01B4B9B6823F4E06231
:1020F0007B68DB68184913438B607B681B6803F0BF
:102100000803002B09D0144B9B6823F460527B68B2
:102110001B69DB00104913438B6000F025F8014672
:102120000D4B9B681B0903F00F030C4AD35C03F0B3
:102130001F0321FA03F30A4A13600A4B1B6818466F
:10214000FFF7C8FA0346FB72FB7A18461037BD4604
:1021500080BD00BF0020024000100240B8420008CD
:10216000080000200000002080B489B000AF0023E8
:10217000FB610023BB613E4B9B6803F00C033B619A
:102180003B4BDB6803F00303FB603B69002B05D08E
:102190003B690C2B21D1FB68012B1ED1344B1B68F2
:1021A00003F00803002B07D1314BD3F894301B0AFE
:1021B00003F00F03FB6105E02D4B1B681B0903F0C7
:1021C0000F03FB612B4AFB6952F82330FB613B692B
:1021D000002B0DD1FB69BB610AE03B69042B02D1E6
:1021E000254BBB6104E03B69082B01D1234BBB614C
:1021F0003B690C2B34D11E4BDB6803F00303BB603F
:10220000BB68022B03D0BB68032B03D005E01A4B3D
:102210007B6105E0194B7B6102E0FB697B6100BFDC
:10222000134BDB681B0903F0070301337B60104B82
:10223000DB681B0A03F07F037A6902FB03F27B6809
:10224000B2FBF3F37B610A4BDB685B0E03F0030325
:1022500001335B003B607A693B68B2FBF3F3BB611F
:10226000BB6918462437BD465DF8047B704700BF44
:1022700000100240D04200080024F40000127A004E
:1022800080B400AF034B1B681846BD465DF8047B65
:10229000704700BF0800002080B500AFFFF7F0FFD7
:1022A0000146064B9B681B0A03F00703044AD35CF4
:1022B00003F01F0321FA03F3184680BD001002400B
:1022C000C842000880B500AFFFF7DAFF0146064BB1
:1022D0009B68DB0A03F00703044AD35C03F01F0387
:1022E00021FA03F3184680BD00100240C8420008DE
:1022F00080B586B000AF786000233B612A4B9B6DB0
:1023000003F08053002B03D000F0F6FE786114E058
:10231000254B9B6D244A43F080539365224B9B6D64
:1023200003F08053FB60FB6800F0E6FE78611E4B13
:102330009B6D1D4A23F0805393657B69B3F5007F45
:102340000BD17B68802B19D97B68A02B02D9022383
:102350003B6113E001233B6110E07B68802B02D9D5
:1023600003233B610AE07B68802B02D102233B619F
:1023700004E07B68702B01D101233B610B4B1B6890
:1023800023F0070209493B6913430B60074B1B68A5
:1023900003F007033A699A4201D0012300E00023C9
:1023A00018461837BD4680BD00100240002002408C
:1023B00080B586B000AF78600023FB740023BB7447
:1023C0007B681B6803F40063002B3FD07B689B6E27
:1023D000B3F5800F1CD0B3F5800F02D8002B0ED0C0
:1023E0001FE0B3F5000F03D0B3F5400F1CD018E089
:1023F000854BDB68844A43F48033D36015E07B6807
:1024000004330021184600F0DBFA0346FB740CE0AD
:102410007B6820330021184600F0C2FB0346FB74A2
:1024200003E00123FB7400E000BFFB7C002B0BD119
:10243000754BD3F8883023F440027B689B6E724959
:102440001343C1F8883001E0FB7CBB747B681B68D8
:1024500003F48053002B3FD07B68DB6EB3F1807FA9
:102460001CD0B3F1807F02D8002B0ED01FE0B3F157
:10247000007F03D0B3F1407F1CD018E0624BDB68D3
:10248000614A43F48033D36015E07B680433002154
:10249000184600F095FA0346FB740CE07B68203385
:1024A0000021184600F07CFB0346FB7403E0012387
:1024B000FB7400E000BFFB7C002B0BD1524BD3F828
:1024C000883023F040727B68DB6E4F491343C1F8BC
:1024D000883001E0FB7CBB747B681B6803F400332D
:1024E000002B00F0A08000237B74474B9B6D03F012
:1024F0008053002B01D1012300E00023002B0DD0DD
:10250000414B9B6D404A43F0805393653E4B9B6D1E
:1025100003F08053BB60BB6801237B743B4B1B689B
:102520003A4A43F480731360FFF720F9F86009E03A
:10253000FFF71CF90246FB68D31A022B02D90323CA
:10254000FB7405E0314B1B6803F48073002BEFD064
:10255000FB7C002B5CD12C4BD3F8903003F4407300
:102560007B617B69002B1FD07B68D3F888307A6948
:102570009A4219D0244BD3F8903023F440737B61F6
:10258000214BD3F89030204A43F48033C2F8903086
:102590001D4BD3F890301C4A23F48033C2F890309E
:1025A000194A7B69C2F890307B6903F00103002B64
:1025B00016D0FFF7DBF8F8600BE0FFF7D7F802461C
:1025C000FB68D31A41F28832934202D90323FB7489
:1025D00006E00D4BD3F8903003F00203002BECD053
:1025E000FB7C002B0CD1084BD3F8903023F44072C5
:1025F0007B68D3F8883004491343C1F8903009E070
:10260000FB7CBB7406E000BF00100240007000407D
:10261000FB7CBB747B7C012B05D1A64B9B6DA54A33
:1026200023F0805393657B681B6803F00103002B44
:102630000AD0A04BD3F8883023F003027B689B6B51
:102640009C491343C1F888307B681B6803F0020380
:10265000002B0AD0974BD3F8883023F00C027B680C
:10266000DB6B94491343C1F888307B681B6803F027
:102670000403002B0AD08F4BD3F8883023F03002AC
:102680007B681B6C8B491343C1F888307B681B68DF
:1026900003F00803002B0AD0864BD3F8883023F0D0
:1026A000C0027B685B6C83491343C1F888307B6848
:1026B0001B6803F01003002B0AD07E4BD3F8883040
:1026C00023F440727B689B6C7A491343C1F88830CD
:1026D0007B681B6803F02003002B0AD0754BD3F8EE
:1026E000883023F440627B68DB6C72491343C1F885
:1026F00088307B681B6803F40073002B0AD06D4B95
:10270000D3F8883023F440227B681B6E6949134359
:10271000C1F888307B681B6803F48063002B0AD003
:10272000644BD3F8883023F440127B685B6E6149B8
:102730001343C1F888307B681B6803F04003002B0B
:102740000AD05C4BD3F8883023F440527B681B6D71
:1027500058491343C1F888307B681B6803F0800335
:10276000002B0AD0534BD3F8883023F440427B68C7
:102770005B6D50491343C1F888307B681B6803F4D4
:102780008073002B0AD04B4BD3F8883023F44032AF
:102790007B689B6D47491343C1F888307B681B6891
:1027A00003F48013002B0AD0424BD3F89C3023F063
:1027B00003027B68DB6D3F491343C1F89C307B68A3
:1027C0001B6803F40053002B28D03A4BD3F8883011
:1027D00023F040627B681B6F36491343C1F8883091
:1027E0007B681B6FB3F1006F06D1324BDB68314A57
:1027F00043F48013D36011E07B681B6FB3F1806FEB
:102800000CD17B6804330121184600F0D9F8034647
:10281000FB74FB7C002B01D0FB7CBB747B681B68CA
:1028200003F40023002B28D0224BD3F8883023F068
:1028300040627B685B6F1F491343C1F888307B6837
:102840005B6FB3F1006F06D11A4BDB68194A43F492
:102850008013D36011E07B685B6FB3F1806F0CD1A4
:102860007B6804330121184600F0AAF80346FB7484
:10287000FB7C002B01D0FB7CBB747B681B6803F4E2
:102880008023002B2AD00B4BD3F8883023F04062F2
:102890007B689B6F07491343C1F888307B689B6F47
:1028A000B3F1006F08D1034BDB68024A43F4801395
:1028B000D36013E0001002407B689B6FB3F1806F20
:1028C0000CD17B6804330121184600F079F80346E7
:1028D000FB74FB7C002B01D0FB7CBB747B681B680A
:1028E00003F48043002B2FD02C4BD3F8883023F0F7
:1028F00040527B68DB6F29491343C1F888307B68FD
:10290000DB6FB3F1805F0DD17B6804330221184681
:1029100000F056F80346FB74FB7C002B14D0FB7CC4
:10292000BB7411E07B68DB6FB3F1005F0CD17B6897
:1029300020330221184600F033F90346FB74FB7C78
:10294000002B01D0FB7CBB747B681B6803F4004345
:10295000002B0BD0114BD3F8883023F080427B68DA
:10296000D3F880300D491343C1F888307B681B6869
:1029700003F48033002B0BD0084BD3F8883023F0BE
:1029800000427B68D3F8843004491343C1F888308F
:10299000BB7C18461837BD4680BD00BF0010024002
:1029A00080B400AF054B1B68044A43F00403136076
:1029B00000BFBD465DF8047B704700BF00100240B9
:1029C00080B584B000AF786039600023FB73734B2F
:1029D000DB6803F00303002B18D0704BDB6803F0B7
:1029E00003027B681B689A420DD17B681B68002B31
:1029F00009D06A4BDB681B0903F007035A1C7B688C
:102A00005B689A4244D00123FB7341E07B681B68FA
:102A1000022B0CD0032B13D0012B20D15F4B1B6852
:102A200003F00203002B1DD10123FB731AE05B4B63
:102A30001B6803F48063002B16D10123FB7313E0A2
:102A4000564B1B6803F40033002B0FD1534B1B680C
:102A500003F48023002B09D10123FB7306E001233B
:102A6000FB7304E000BF02E000BF00E000BFFB7B9F
:102A7000002B0DD1494BDB6823F073027B6819688A
:102A80007B685B68013B1B010B4344491343CB60EC
:102A9000FB7B002B7CD1414B1B68404A23F08063B9
:102AA0001360FEF763FEB86009E0FEF75FFE0246C2
:102AB000BB68D31A022B02D90323FB7305E0374B03
:102AC0001B6803F00063002BEFD1FB7B002B5FD171
:102AD0003B68002B10D1314B1B6923F0784323F462
:102AE000FE437A68926811027A68D268D2060A4375
:102AF0002A4913430B6127E03B68012B12D1274B76
:102B00001B6923F4C00323F4FE437A689268110220
:102B10007A6812695208013A52050A431F49134361
:102B20000B6111E01D4B1B6923F0C06323F4FE43CE
:102B30007A68926811027A6852695208013A52061C
:102B40000A43164913430B61144B1B68134A43F0A5
:102B500080631360FEF70AFEB86009E0FEF706FE28
:102B60000246BB68D31A022B02D90323FB7305E08C
:102B70000A4B1B6803F00063002BEFD0FB7B002B9C
:102B800006D1064B1A697B689B69044913430B61A4
:102B9000FB7B18461037BD4680BD00BF00100240C9
:102BA00080B584B000AF786039600023FB73684B58
:102BB000DB6803F00303002B18D0654BDB6803F0E0
:102BC00003027B681B689A420DD17B681B68002B4F
:102BD00009D05F4BDB681B0903F007035A1C7B68B5
:102BE0005B689A4244D00123FB7341E07B681B6819
:102BF000022B0CD0032B13D0012B20D1544B1B687C
:102C000003F00203002B1DD10123FB731AE0504B8C
:102C10001B6803F48063002B16D10123FB7313E0C0
:102C20004B4B1B6803F40033002B0FD1484B1B6840
:102C300003F48023002B09D10123FB7306E0012359
:102C4000FB7304E000BF02E000BF00E000BFFB7BBD
:102C5000002B0DD13E4BDB6823F073027B681968B3
:102C60007B685B68013B1B010B4339491343CB6015
:102C7000FB7B002B66D1364B1B68354A23F0805313
:102C80001360FEF773FDB86009E0FEF76FFD0246C2
:102C9000BB68D31A022B02D90323FB7305E02C4B2C
:102CA0001B6803F00053002BEFD1FB7B002B49D1B5
:102CB0003B68002B10D1264B5B6923F0784323F44B
:102CC000FE437A68926811027A68D268D2060A4393
:102CD0001F4913434B6111E01D4B5B6923F0C06337
:102CE00023F4FE437A68926811027A6812695208E6
:102CF000013A52060A43164913434B61144B1B68B1
:102D0000134A43F080531360FEF730FDB86009E0CA
:102D1000FEF72CFD0246BB68D31A022B02D903230F
:102D2000FB7305E00A4B1B6803F00053002BEFD048
:102D3000FB7B002B06D1064B5A697B685B69044913
:102D400013434B61FB7B18461037BD4680BD00BF67
:102D50000010024080B487B000AF78603960002373
:102D60007B6166E13B681A6801217B6901FA03F324
:102D70001340FB60FB68002B00F058813B685B68E8
:102D8000022B03D03B685B68122B23D17B69DA08E6
:102D90007B68083253F822303B617B6903F00703FC
:102DA0009B000F2202FA03F3DB433A6913403B61B5
:102DB0003B681A697B6903F007039B0002FA03F37F
:102DC0003A6913433B617B69DA087B6808323969E9
:102DD00043F822107B681B683B617B695B00032220
:102DE00002FA03F3DB433A6913403B613B685B68DB
:102DF00003F003027B695B0002FA03F33A691343B1
:102E00003B617B683A691A603B685B68012B0BD0B9
:102E10003B685B68022B07D03B685B68112B03D0D3
:102E20003B685B68122B30D17B689B683B617B6998
:102E30005B00032202FA03F3DB433A6913403B6170
:102E40003B68DA687B695B0002FA03F33A69134373
:102E50003B617B683A699A607B685B683B610122F1
:102E60007B6902FA03F3DB433A6913403B613B6839
:102E70005B681B0903F001027B6902FA03F33A69FC
:102E800013433B617B683A695A607B68DB683B614E
:102E90007B695B00032202FA03F3DB433A691340C8
:102EA0003B613B689A687B695B0002FA03F33A690D
:102EB00013433B617B683A69DA603B685B6803F007
:102EC0008053002B00F0B280614B1B6E604A43F0D0
:102ED000010313665E4B1B6E03F00103BB60BB680E
:102EE0005C4A7B699B08023352F823303B617B6963
:102EF00003F003039B000F2202FA03F3DB433A695A
:102F000013403B617B68B3F1904F2BD07B68524AF2
:102F1000934225D07B68514A93421FD07B68504A28
:102F2000934219D07B684F4A934213D07B684E4A34
:102F300093420DD07B684D4A934207D07B684C4A40
:102F4000934201D107230EE008230CE006230AE098
:102F5000052308E0042306E0032304E0022302E043
:102F6000012300E000237A6902F0030292009340FB
:102F70003A6913433B6137497B699B0802333A69DD
:102F800041F823203B4B1B683B61FB68DB433A69FC
:102F900013403B613B685B6803F48033002B03D034
:102FA0003A69FB6813433B61324A3B691360314B1A
:102FB0005B683B61FB68DB433A6913403B613B68FC
:102FC0005B6803F40033002B03D03A69FB681343BA
:102FD0003B61284A3B695360264B9B683B61FB6819
:102FE000DB433A6913403B613B685B6803F4801341
:102FF000002B03D03A69FB6813433B611D4A3B69D0
:1030000093601C4BDB683B61FB68DB433A69134010
:103010003B613B685B6803F40013002B03D03A6903
:10302000FB6813433B61134A3B69D3607B690133FF
:103030007B613B681A687B6922FA03F3002B7FF4FB
:1030400091AE00BF1C37BD465DF8047B704700BFE2
:103050000010024000000140000400480008004841
:10306000000C0048001000480014004800180048F8
:10307000001C00480004014080B485B000AF7860B7
:103080000B467B807B681A697B881340002B02D03B
:103090000123FB7301E00023FB73FB7B184614370D
:1030A000BD465DF8047B704780B483B000AF7860A4
:1030B0000B467B8013467B707B78002B03D07A888D
:1030C0007B689A6102E07A887B689A6200BF0C375D
:1030D000BD465DF8047B704780B400AF054B1B68AC
:1030E000044A43F48073136000BFBD465DF8047B5F
:1030F000704700BF0070004080B400AF044B1B68F5
:1031000003F4C0631846BD465DF8047B704700BFFA
:103110000070004080B485B000AF78607B68B3F584
:10312000007F30D1234B1B6803F4C063B3F5007FED
:1031300038D0204B1B6823F4C0631E4A43F400734D
:1031400013601D4B1B68322202FB03F31B4AA2FBD8
:1031500003239B0C0133FB6002E0FB68013BFB6037
:10316000144B5B6903F48063B3F5806F02D1FB6895
:10317000002BF2D10F4B5B6903F48063B3F5806FD2
:1031800010D103230FE00B4B1B6803F4C063B3F5AE
:10319000806F07D0074B1B6823F4C063054A43F4D4
:1031A00080631360002318461437BD465DF8047B26
:1031B000704700BF007000400800002083DE1B4302
:1031C00080B485B000AF78607B6803F00703FB60D4
:1031D0000C4BDB68BB60BA684FF6FF031340BB6063
:1031E000FB681A02BB68134343F0BF6343F4003328
:1031F000BB60044ABB68D36000BF1437BD465DF8AE
:10320000047B704700ED00E080B400AF044BDB6846
:103210001B0A03F007031846BD465DF8047B7047A0
:1032200000ED00E080B483B000AF03463960FB716D
:1032300097F90730002B0ADB3B68DAB20C4997F9A3
:1032400007301201D2B20B4483F800230AE03B6836
:10325000DAB20849FB7903F00F03043B1201D2B242
:103260000B441A7600BF0C37BD465DF8047B7047EF
:1032700000E100E000ED00E080B489B000AFF8604C
:10328000B9607A60FB6803F00703FB61FB69C3F177
:103290000703042B28BF0423BB61FB690433062BFF
:1032A00002D9FB69033B00E000237B614FF0FF3252
:1032B000BB6902FA03F3DA43BB681A407B699A40A0
:1032C0004FF0FF317B6901FA03F3D9437B680B4070
:1032D000134318462437BD465DF8047B7047000051
:1032E00080B582B000AF78607B68013BB3F1807F2E
:1032F00001D301230FE00A4A7B68013B53600F2191
:103300004FF0FF30FFF78EFF054B00229A60044B11
:1033100007221A60002318460837BD4680BD00BF4B
:1033200010E000E080B582B000AF78607868FFF709
:1033300047FF00BF0837BD4680BD80B586B000AFEF
:103340000346B9607A60FB7300237B61FFF75CFF83
:1033500078617A68B9687869FFF78EFF024697F955
:103360000F3011461846FFF75DFF00BF1837BD4606
:1033700080BD80B582B000AF78607868FFF7B0FF9D
:10338000034618460837BD4680BD80B584B000AFFF
:1033900078607B68002B01D101237CE07B680022F0
:1033A0009A627B6893F85D30DBB2002B06D17B68B4
:1033B000002283F85C207868FDF764FF7B680222B6
:1033C00083F85D207B681B681A687B681B6822F0A5
:1033D00040021A607B68DB68B3F5E06F02D9002316
:1033E000FB6002E04FF48053FB607B68DB68B3F561
:1033F000706F07D07B68DB68B3F5E06F02D07B6845
:1034000000229A627B681B6B002B0BD17B68DB6808
:10341000B3F5E06F03D97B6802221A6302E07B6890
:1034200001221A637B685A687B689B681A437B6831
:103430001B691A437B685B691A437B689B6903F4C9
:1034400000731A437B68DB691A437B681B6A42EA94
:1034500003017B689A6A7B681B680A431A607B6871
:103460009B691B0C03F004027B685B6A1A437B6850
:103470005B6B1A437B68DB6842EA03017B681B686D
:10348000FA680A435A607B6800221A667B68012248
:1034900083F85D20002318461037BD4680BD80B5F7
:1034A00082B000AF78607B68002B01D1012340E03F
:1034B0007B685B6F002B06D17B68002283F870204D
:1034C0007868FDF755FF7B6824225A677B681B6884
:1034D0001A687B681B6822F001021A60786800F0A5
:1034E0002DF80346012B01D1012322E07B685B6AA2
:1034F000002B02D0786800F08DFB7B681B685A684F
:103500007B681B6822F490425A607B681B689A684B
:103510007B681B6822F02A029A607B681B681A6825
:103520007B681B6842F001021A60786800F014FCA6
:10353000034618460837BD4680BD00002DE9F04F10
:103540008BB000AFF8600023FB610023FB76002303
:103550007B61FB689A68FB681B691A43FB685B69BF
:103560001A43FB68DB6913437B62FB681B681A68BC
:10357000B84B1340FA681268796A0B431360FB6812
:103580001B685B6823F44051FB68DA68FB681B68C2
:103590000A435A60FB689B697B62FB681B68AE4A02
:1035A000934204D0FB681B6A7A6A13437B62FB6810
:1035B0001B689B6823F43061FB681B687A6A0A43C6
:1035C0009A60FB681B68A54A934226D1A44BD3F8A6
:1035D000883003F00303032B1AD801A252F823F01A
:1035E000F135000801360008F935000809360008F1
:1035F000012387F8233005E1022387F8233001E116
:10360000042387F82330FDE0082387F82330F9E00E
:10361000102387F8233000BFF4E0FB681B68914A51
:10362000934238D18E4BD3F8883003F00C030C2B27
:103630002CD801A252F823F06D3600088D36000810
:103640008D3600088D3600087D3600088D3600085E
:103650008D3600088D360008753600088D36000856
:103660008D3600088D36000885360008002387F85F
:103670002330C7E0022387F82330C3E0042387F810
:103680002330BFE0082387F82330BBE0102387F8FE
:10369000233000BFB6E0FB681B68734A934225D114
:1036A0006F4BD3F8883003F03003102B11D0102B60
:1036B00002D8002B05D014E0202B06D0302B0CD0E4
:1036C0000FE0002387F823309CE0022387F82330A3
:1036D00098E0042387F8233094E0082387F8233008
:1036E00090E0102387F8233000BF8BE0FB681B6855
:1036F0005E4A934225D15A4BD3F8883003F0C00379
:10370000402B11D0402B02D8002B05D014E0802B89
:1037100006D0C02B0CD00FE0002387F8233071E0D7
:10372000022387F823306DE0042387F8233069E013
:10373000082387F8233065E0102387F8233000BF83
:1037400060E0FB681B684A4A934229D1444BD3F896
:10375000883003F44073B3F5807F14D0B3F5807FD5
:1037600002D8002B07D016E0B3F5007F07D0B3F5E1
:10377000407F0CD00FE0002387F8233042E0022383
:1037800087F823303EE0042387F823303AE008230B
:1037900087F8233036E0102387F8233000BF31E06C
:1037A000FB681B682C4A934229D12D4BD3F88830F3
:1037B00003F44063B3F5806F14D0B3F5806F02D883
:1037C000002B07D016E0B3F5006F07D0B3F5406FBC
:1037D0000CD00FE0002387F8233013E0022387F892
:1037E00023300FE0042387F823300BE0082387F809
:1037F000233007E0102387F8233000BF02E01023B6
:1038000087F82330FB681B68134A934240F0FF801F
:1038100097F82330082B37D801A252F823F000BFC5
:1038200045380008893800084D38000889380008F4
:103830007938000889380008893800088938000874
:1038400081380008FEF728FD786120E0094B7B6194
:103850001DE000BFF369FFEF008000400038014029
:10386000001002400044004000480040004C00406E
:10387000005000400024F400FEF776FC786106E07A
:103880004FF400437B6102E00123FB7600BF7B69BC
:10389000002B00F0B081FB685A6813465B001344AC
:1038A0007A699A4205D3FB685B681B037A699A427E
:1038B00002D90123FB769EE197F82330082B00F212
:1038C000938001A252F823F0ED380008E93900088E
:1038D0003B390008E93900086F390008E939000868
:1038E000E9390008E9390008BB390008FEF7D4FCC3
:1038F000034619464FF000024FF000034FF000045A
:10390000140244EA11640B02FA6852685208114624
:103910004FF000025818386044EB02037B60FB68EC
:103920005B684FF000041A462346D7E90001FDF713
:103930002DF803460C46FB6159E0FB685B685B08A9
:103940004FF00004B2494FF0000213EB010A44EBC0
:10395000020BFB685B684FF000041A462346504692
:103960005946FDF713F803460C46FB613FE0FEF7AE
:10397000FBFB034619464FF000024FF000034FF0E7
:103980000004140244EA11640B02FA6852685208F7
:1039900011464FF0000213EB010844EB0209FB68EB
:1039A0005B684FF000041A46234640464946FCF740
:1039B000EDFF03460C46FB6119E0FB685B685B08A2
:1039C0004FF0000413F5000544F10006FB685B6846
:1039D0004FF000041A46234628463146FCF7D6FF2E
:1039E00003460C46FB6102E00123FB7600BFFB6946
:1039F000B3F5407F08D3FB69B3F5801F04D2FB68A1
:103A00001B68FA69DA60F6E00123FB76F3E0FB68F5
:103A1000DB69B3F5004F40F0808097F82330082B26
:103A20005BD801A252F823F04D3A00086B3A000827
:103A3000893A0008DB3A0008A53A0008DB3A00089A
:103A4000DB3A0008DB3A0008C33A0008FEF724FC22
:103A500003465A00FB685B685B081A44FB685B68B6
:103A6000B2FBF3F39BB2FB613AE0FEF72BFC03469B
:103A70005A00FB685B685B081A44FB685B68B2FB32
:103A8000F3F39BB2FB612BE0FB685B685B0803F11F
:103A9000F47303F59043FA685268B3FBF2F39BB2F8
:103AA000FB611DE0FEF760FB03465A00FB685B68A4
:103AB0005B081A44FB685B68B2FBF3F39BB2FB61E3
:103AC0000EE0FB685B685B0803F58032FB685B68AF
:103AD000B2FBF3F39BB2FB6102E00123FB7600BF74
:103AE000FB690F2B16D9FB69B3F5803F12D2FB6936
:103AF0009BB223F00F037B82FB695B089BB203F050
:103B000007039AB27B8A13437B82FB681B687A8A1D
:103B1000DA6070E00123FB766DE097F82330082B24
:103B200058D801A252F823F04D3B0008693B000829
:103B3000853B0008D53B0008A13B0008D53B0008A9
:103B4000D53B0008D53B0008BD3B0008FEF7A4FBB1
:103B50000246FB685B685B081A44FB685B68B2FB63
:103B6000F3F39BB2FB6138E0FEF7ACFB0246FB6867
:103B70005B685B081A44FB685B68B2FBF3F39BB2BB
:103B8000FB612AE0FB685B685B0803F5740303F5DF
:103B90001053FA685268B3FBF2F39BB2FB611CE06E
:103BA000FEF7E2FA0246FB685B685B081A44FB68B2
:103BB0005B68B2FBF3F39BB2FB610EE0FB685B68F2
:103BC0005B0803F50042FB685B68B2FBF3F39BB252
:103BD000FB6102E00123FB7600BFFB690F2B08D9D4
:103BE000FB69B3F5803F04D2FB681B68FA69DA60B1
:103BF00001E00123FB76FB6800221A66FB680022C5
:103C00005A66FB7E18462C37BD46BDE8F08F00BFD4
:103C1000000024F480B483B000AF78607B685B6AF6
:103C200003F00103002B0AD07B681B685B6823F458
:103C300000317B689A6A7B681B680A435A607B681C
:103C40005B6A03F00203002B0AD07B681B685B6889
:103C500023F480317B68DA6A7B681B680A435A6008
:103C60007B685B6A03F00403002B0AD07B681B6847
:103C70005B6823F480217B681A6B7B681B680A43AE
:103C80005A607B685B6A03F00803002B0AD07B68EC
:103C90001B685B6823F400417B685A6B7B681B6878
:103CA0000A435A607B685B6A03F01003002B0AD05A
:103CB0007B681B689B6823F480517B689A6B7B68E8
:103CC0001B680A439A607B685B6A03F02003002B41
:103CD0000AD07B681B689B6823F400517B68DA6B11
:103CE0007B681B680A439A607B685B6A03F0400349
:103CF000002B1AD07B681B685B6823F480117B68FB
:103D00001A6C7B681B680A435A607B681B6CB3F5AE
:103D1000801F0AD17B681B685B6823F4C0017B6845
:103D20005A6C7B681B680A435A607B685B6A03F0C5
:103D30008003002B0AD07B681B685B6823F400219A
:103D40007B689A6C7B681B680A435A6000BF0C371B
:103D5000BD465DF8047B704780B586B002AF7860E1
:103D60007B680022DA67FDF701FDF8607B681B685D
:103D70001B6803F00803082B0ED16FF07E430093FD
:103D8000FB6800224FF40011786800F02AF803461F
:103D9000002B01D0032320E07B681B681B6803F025
:103DA0000403042B0ED16FF07E430093FB680022C6
:103DB0004FF48001786800F014F80346002B01D01E
:103DC00003230AE07B6820225A677B6820229A67D7
:103DD0007B68002283F87020002318461037BD4608
:103DE00080BD80B584B000AFF860B9603B60134619
:103DF000FB712AE0BB69B3F1FF3F26D0FDF7B6FCAB
:103E000002463B68D31ABA699A4202D3BB69002BB7
:103E10001BD1FB681B681A68FB681B6822F4D07210
:103E20001A60FB681B689A68FB681B6822F0010235
:103E30009A60FB6820225A67FB6820229A67FB6819
:103E4000002283F8702003230FE0FB681B68DA6907
:103E5000BB681340BA689A420CBF01230023DBB24F
:103E60001A46FB799A42C5D0002318461037BD4642
:103E700080BD000080B400AF174BD3F88830164ADD
:103E800043F47003C2F88830144B1B68134A43F0A4
:103E900001031360114B00229A60104B1B680F4AFC
:103EA00023F0A85323F4102313600C4B4FF48052DB
:103EB000DA600A4B1B68094A23F480231360074B1E
:103EC00000229A61044B4FF000629A6000BFBD4629
:103ED0005DF8047B704700BF00ED00E00010024079
:103EE00080B584B000AF78600C4B5B68FB60FEF778
:103EF000C7F902460A4BA3FB02239B0C7A6802FB1C
:103F000003F37B6000BF054B5A68FB68D21A7B68DD
:103F10009A42F8D300BF1037BD4680BD001000E0C4
:103F200083DE1B43DFF834D0002103E00C4B5B58E9
:103F3000435004310B480C4B42189A42F6D30B4ABB
:103F400002E0002342F8043B094B9A42F9D3FFF701
:103F500091FF00F011F8FCF779FDFEE70000052065
:103F6000184300080000002010000020100000206E
:103F700090020020FEE7000070B50D4D0D4C641B53
:103F8000A4100026A64209D10B4D0C4C00F088F974
:103F9000641BA4100026A64205D170BD55F8043B51
:103FA00098470136EEE755F8043B98470136F2E7AB
:103FB0000843000808430008084300080C430008B1
:103FC00002440346934200D1704703F8011BF9E70E
:103FD0002DE9F047089E04468846002B40F0858076
:103FE0008A42154648D9B2FA82F24AB1C2F1200794
:103FF00001FA02F320FA07F7954047EA03089440D4
:104000004FEA154E230CB8FBFEF71FFA85FC0EFB9A
:10401000178843EA084307FB0CF1994209D9EB18CA
:1040200007F1FF3080F0E380994240F2E080023FE8
:104030002B445B1AA4B2B3FBFEF00EFB103344EA30
:10404000034400FB0CFCA44509D92C1900F1FF33F3
:1040500080F0CB80A44540F2C88002382C4440EA6E
:104060000740A4EB0C0400271EB1D4400023C6E98E
:1040700000433946BDE8F087002A53D0B2FA82F2F5
:10408000002A40F0B680491B4FEA154E1FFA85F80A
:104090000127B1FBFEFC230C0EFB1C1143EA01437C
:1040A00008FB0CF1994207D9EB180CF1FF3002D252
:1040B000994200F2EC808446591AA3B2B1FBFEF09B
:1040C0000EFB101443EA044408FB00F8A04507D98E
:1040D0002C1900F1FF3302D2A04500F2DC80184613
:1040E000A4EB080440EA0C40BEE78B4208D9002E3E
:1040F00078D00027C6E9000138463946BDE8F08788
:10410000B3FA83F77FB98B4202D3824200F2BD80BB
:10411000841A61EB030301209846002EA9D0C6E95A
:104120000048A6E7FFDEC7F12005BB4022FA05FCE8
:104130004CEA030C01FA07F420FA05F821FA05F31A
:104140004FEA1C4E48EA0404B3FBFEF9210C0EFBB7
:1041500019331FFA8CF841EA034309FB08FA9A4520
:1041600002FA07F200FA07F10BD91CEB030309F17D
:10417000FF3080F088809A4540F28580A9F10209DD
:104180006344A3EB0A03A4B2B3FBFEF00EFB1033AF
:1041900044EA034400FB08F8A04508D91CEB0404DA
:1041A00000F1FF336BD2A04569D90238644440EA7C
:1041B0000940A4EB0804A0FB02894C45C6464B46C7
:1041C00054D351D0002E69D0B1EB0E0264EB03043E
:1041D00004FA05F522FA07F3FC401D43C6E9005432
:1041E000002746E73746304643E7184637E7074695
:1041F0001FE7C2F1200320FA03F7954001FA02F00D
:1042000021FA03F34FEA154E3843010CB3FBFEF7D6
:104210001FFA85F80EFB173341EA034107FB08F349
:104220008B4204FA02F407D9691807F1FF3C28D23F
:104230008B4226D9023F2944CB1A81B2B3FBFEF050
:104240000EFB103341EA034100FB08F38B4207D910
:10425000691800F1FF3C10D28B420ED90238294474
:10426000C91A40EA074714E74145ABD2B8EB020E42
:1042700069EB0C0201381346A4E76046F0E71846E4
:1042800095E76746D8E781467BE7384645E7ACF1D6
:10429000020C2B4410E702382C4421E73746E8E6AD
:1042A000F8B500BFF8BC08BC9E467047F8B500BF23
:0842B000F8BC08BC9E467047F3
:1042B80000000000000000000102030406070809CE
:1042C8000000000001020304A0860100400D030065
:1042D800801A060000350C0040420F0080841E0042
:1042E80000093D0000127A000024F40000366E0137
:0842F8000048E801006CDC0243
:08430000D0FCFF7F010000006A
:08430800290A00080000000072
:08431000010A00080000000092
:10431800100000000100000000093D00000000003E
:0400000508003F258B
:00000001FF
